:100000000C942A020C9447020C9447020C94831916
:100010000C9447020C9447020C9447020C9447023C
:100020000C9447020C9447020C945A210C942E22F3
:100030000C94221C0C9447020C9447020C94470227
:100040000C9447020C9447020C9447020C9447020C
:100050000C9447020C94C51C0C9447020C94470264
:100060000C9447020C9447020C9447020C944702EC
:100070000C9447020C9447020C9447020C944702DC
:100080000C9447020C9447020C9447020C944702CC
:100090000C9447020C9447020C9447020C944702BC
:1000A0000C9447020C9447020C9447022900140058
:1000B0001A000800150017002B00040016000700A6
:1000C00009000A00E1001D001B00060019000500E0
:1000D000000000000000E00001512C002A00130085
:1000E00012000C0018001C00340033000F000E003A
:1000F0000D000B001474380037003600100011009A
:10010000000000000000E7000251DA5C0100460038
:1001100013554A004D004B000100500051005200A1
:100120004F004E0001001D011B01060119011C01B9
:10013000000000000000010001002C002A002E0039
:1001400026002500240036004C0056002300220023
:10015000210037004900540020001F001E00270026
:1001600000000000000001000351010001001E0218
:100170001F0220022102220201003A003B003C0043
:100180003D003E00E1003F004000410042004300CE
:10019000000000000000010003512C002A0027028B
:1001A00026022502240223023500310030002F00F0
:1001B0002E002D003502310230022F022E022D02B8
:1001C000000000000000010001000100FF00F50038
:1001D000F400F200F100F900FE00EF00EE00ED0087
:1001E000F000FA00FD0000000000FB00FC00F3003E
:1001F000000000000000010001002C004500440048
:10020000000053003900A900A800AB00AC00AD000D
:10021000AE00AA00005C04520000000000000000D4
:100220000000000000000100010001001F0021008B
:1002300014001A00080015001F002B00040016000F
:10024000070009001E00E1001D001B000600190048
:100250000000000000000551E0002C0000520000EA
:100260000000000000002900000000000000000065
:10027000000000001000000000000000000000006E
:10028000000000000000E300000000002400250042
:10029000260001003D003C00230017000100010082
:1002A00001003B002200010005003E000A003A0068
:1002B000000000000000010001000100000000003B
:1002C000000000000000000000000000000000002E
:1002D000000000000000000000000000000000001E
:1002E0000000000000000000000000000C034300BC
:1002F0006F0072006E0065000000100366006F0062
:100300006F007300740061006E00000004030904B4
:1003100009023B00020100A0FA09040000010301E8
:100320000100092111010001224000070581030895
:10033000000109040100010300000009211101006E
:100340000122B6000705820320000112010002000D
:1003500000000853460100010001020001050109E7
:1003600002A10185020901A1000509190129081549
:100370000025019508750181020501093009311533
:1003800081257F95027508810609381581257F959D
:100390000175088106050C0A38021581257F950133
:1003A00075088106C0C005010980A10185031901F6
:1003B0002AB700150126B700950175108100C00508
:1003C0000C0901A101850419012AA002150126A02A
:1003D00002950175108100C005010906A10185067D
:1003E000050719E029E71500250195087501810227
:1003F0000507190029EF1500250195F07501810207
:1004000005081901290595057501910295017503E6
:100410009101C005010906A101050719E029E715A9
:100420000025019508750181029501750881010576
:1004300007190029FF150026FF00950675088100A1
:1004400005081901290595057501910295017503A6
:100450009101C00011241FBECFEFDAE0DEBFCDBF97
:1004600011E0A0E0B1E0E8E7F9E402C005900D92E8
:10047000AE39B107D9F722E0AEE9B1E001C01D9273
:10048000AE3DB207E1F70E941D140C94A4240C9415
:10049000000081E0089581E008950E944B020895D4
:1004A00008950E9450020895A5E0B0E0EAE5F2E068
:1004B0000C94102449835A833091A10189819A8137
:1004C000311119C0662399F0222389F00E94640833
:1004D000182F682F89819A810E94400869817A814A
:1004E000812F0E94E20E2596E3E00C942C240E94BA
:1004F0005208182FF3CF0E94640869817A81F1CFE6
:10050000FC01262F408151816281738184810E9488
:100510005402089581E00895CF93DF93EC0160E0E9
:100520000E948002BE010E945102DF91CF91089586
:100530000E94641008950E946810089508950E9412
:100540008F060E949E022FEF84E39CE021508040A2
:100550009040E1F700C0000008950E949F020E94B1
:10056000E91C08950E949F020E94FA1C08950F93AF
:100570001F93CF93DF938C0161E00E948002EC0116
:10058000B8010E944D02811106C080E0DF91CF9139
:100590001F910F910895B801CE010E9491188823F0
:1005A000A1F3B801CE010E94C616882371F3B801E9
:1005B000CE010E940318882341F3F8018281882329
:1005C00061F0CB35FDE5DF0701F158F4C115ECE52D
:1005D000DE0791F0CF3DDC4591F0C8010E94490251
:1005E000D5CFCD358DE5D80769F090F0C83ADD4517
:1005F000A1F70E94B202C9CF0E94AD02C6CF0E94ED
:100600002A0DF7CF0E94640CE8CF0E946E0CE5CF54
:100610000E94720CE2CF0E94FF1B0E9428030895E3
:100620000E942C030E94041C089508950E94150343
:10063000089581E008950E94190308950895CF93C5
:10064000C82F0E9416038C2F0E941B03CF91089580
:1006500080E00E941F0308950E94A91A0E941F03B0
:1006600008950E94A91A9091A001981721F08093F3
:10067000A0010E941F030895ABE0B0E0E2E4F3E0C4
:100680000C9411244F83588769877A878B8761116F
:100690000E94AF0B1E821D8285E0FE013796DE01AF
:1006A000119601900D928A95E1F78C819D81892B9D
:1006B00061F449815A816B817C818D819E810E9488
:1006C000D80A2B96E2E00C942D2489819A81892303
:1006D0008F3F79F3CE0101960E948A028111E9CF02
:1006E000F0CFFC01808191810E949E080895CF93F4
:1006F000C82F8823B9F08CEF8C0F813AA8F46C2FA7
:1007000080910001909101010E94251B882329F00E
:100710008C2F0E946F0B0E94D00B8C2F0E94670BB6
:100720000E94D00BCF91089580E28C0F883048F45E
:10073000C77081E001C0880FCA95EAF70E94920B4A
:10074000EFCFEBE5EC0FE33040F4F0E0E25AFE4F80
:10075000808190E00E94E51AE5CFE8E5EC0FE731F3
:1007600050F4F0E0EE0FFF1FE05DFE4F80819181BD
:100770000E94FB1AD7CFCD3EA8F28C2F0E94A11465
:100780000E947415CFCF882379F19CEF980F913A8E
:1007900028F40E946F0B0E94D00B089590E2980FEE
:1007A000983050F4877091E001C0990F8A95EAF76C
:1007B000892F0E94980BEFCF9BE5980F933028F478
:1007C00090E080E00E94E51A089598E5980F97312F
:1007D00028F490E080E00E94FB1A08958D3E20F0FE
:1007E0000E94FB140E94741508951F93CF93DF930A
:1007F000182FEB010E947703209739F4812F0E9474
:10080000C303DF91CF911F9108958FE99FE0019776
:10081000F1F700C000002197EFCF70E060E089336E
:1008200011F460E570E00E94F5030895882321F03B
:100830000E94920B0E94D00B0895882321F00E9401
:10084000980B0E94D00B0895B0E0A0E0EAE2F4E03B
:100850000C940A246C01D62FC72FFC011281F5805D
:10086000F2949FE0F9220E94880BE82E8823B9F0C9
:10087000E12E1123A1F08C2F807F803421F080E2C3
:100880008D0F8830D0F08091BA0282FF16C082E0CE
:100890000E94330C0E94880B91E0E82EE926BC2EC2
:1008A000B2948FE0B822FBE0FB1508F468C0EB2D92
:1008B000F0E0EA55FB4D0C94FB23E12CF0CF0C2F1C
:1008C0000F70C07F11F00295007F112399F0002373
:1008D00059F080E28D0F883010F0D11107C0802FC1
:1008E0000E94920B0E94D00B8D2F41C0802F0E943E
:1008F000A20BF8CF8D2F0E94C303002309F43FC041
:1009000080E28D0F883010F0D11104C0802F0E943A
:10091000980B03C0802F0E94A80B0E94D00B2FC001
:100920000C2F0F70C07FC03211F00295007FDD23C5
:1009300081F0D13009F463C0112309F46DC0FF20A8
:1009400009F463C0F601858180FFCECF8F70858367
:100950005CC08091BA0282FD33C0112359F000239C
:1009600029F0802F0E94920B0E94D00B80E00E9401
:10097000770305C080E00E94C3030111C7CFEB2DB0
:10098000E850FF0B349720F40E94A91A0E941F031D
:10099000EE2089F00E94840B80FD0DC0F6011282CA
:1009A0000E947E0B0E944807C6010E944F060E94CB
:1009B0007E0B0E946A07CDB7DEB7E9E00C942624CF
:1009C000112389F0F11006C00E94B20B802B0E9407
:1009D0001604D5CF21E0F212F7CF0E94B20B802B84
:1009E0000E94B90BCCCFF11006C00E94C60B802F1D
:1009F0000E941D04C4CF31E0F31609F2F6CF112393
:100A000031F085E08F1508F4BACF802FE0CF94E065
:100A10009F1508F4B4CFEBCFFF2049F3D93349F445
:100A2000FFEF27EE33E0F15020403040E1F700C007
:100A300000008D2F0E94C303A2CF8C2F8695869530
:100A4000837069F0813009F09ACF8D2F9C2F9370BD
:100A5000111102C090E080E00E94FB1A90CF8D2F10
:100A60009C2F9370111102C090E080E00E94E51A63
:100A700086CF8D2F112329F00E94A1140E94741596
:100A80007ECF0E94FB14FACF8C2F837009F041C0F7
:100A9000111175CF4D2F429546954770440F440F65
:100AA0000D2F0F7010E030E020E0042E04C0000F86
:100AB000111F221F331F0A94D2F760E070E0CB01B0
:100AC000D4FF0FC06FE070E080E090E004C0660FDC
:100AD000771F881F991F4A95D2F76095709580956A
:100AE0009095C695C695C370602B712B822B932B66
:100AF000C23049F058F4C13019F00E94F3063FCFDC
:100B00000E94E0063CCF0E94060739CF0E94DD0616
:100B100036CF8695112311F08C2F8170882309F42C
:100B20002ECF4D2F429546954770440F440F0D2F01
:100B30000F7010E030E020E0042E04C0000F111F01
:100B4000221F331F0A94D2F760E070E0CB01D4FF7C
:100B50000FC06FE070E080E090E004C0660F771F88
:100B6000881F991F4A95D2F760957095809590954A
:100B7000C695C695C370602B712B822B932BC23008
:100B800049F058F4C13019F00E94C307F8CE0E9412
:100B9000B007F5CE0E94D607F2CE0E941F07EFCE17
:100BA000CF70112329F08C2F0E9448078D2F0FCF73
:100BB0008D2F0E941D048C2F0E946A07E0CED23F29
:100BC00051F160F4D03FB9F0D13F81F0112309F425
:100BD00049C0F11089CE8C2F8F7121C0D33F11F104
:100BE000D43FA1F78091BA0282FD26C08C2F8F716D
:100BF000112311F314C0112349F084E08F1508F478
:100C0000BECE8C2F8F710E948E07B9CE95E09F15B6
:100C100008F4B5CEF6CF8C2F8F711111CDCF0E9475
:100C20004807ADCE112329F08C2F8F710E94320717
:100C3000A6CE0E942C07A3CE112349F0CF718C2F92
:100C40000E94480763E08C2F0E94150C98CE81E02B
:100C50000E94330CE1E0EF1508F091CE82E00E9493
:100C6000330C8DCEF110DACE8C2F8F71A5CF0F9370
:100C70001F93CF93DF93EC01688179818A810E9471
:100C8000A9088C010E94E9070E94DC06B801CE0188
:100C90000E942404DF91CF911F910F910895CF936B
:100CA000DF93EC018B819C81892B29F088819981CC
:100CB00089238F3F51F4DF91CF910895CE010E9497
:100CC0003706CE010E948C02F6CFCE010E94B702F9
:100CD0008111F4CF0E94880B882369F38A818823CD
:100CE00051F38091BA0282FFE6CF82E00E94330C7A
:100CF000E2CF90E080E00E94E51A90E080E00E9460
:100D0000FB1A0E94AF0B0E94D00B0E9490150E940C
:100D1000741508950E94770B0E94790608950E9429
:100D20009F0B0E948A06089592959F70963091F0CD
:100D300058F4925F9F70923058F4803F19F030F46D
:100D4000883E30F481E008959A5FF4CF843FD1F378
:100D500080E00895883EB0F3813FD1F7F3CFFC01E6
:100D6000808191810E949E080E9494060895A5E0CA
:100D7000B0E0EDEBF6E00C9411242596E2E00C9443
:100D80002D24A6E0B0E0E7ECF6E00C9411242696C2
:100D9000E2E00C942D2408950E94CB0608950E9451
:100DA000CC066093C4017093C5018093C6019093F3
:100DB000C7010E947906089508950E94CF060895FC
:100DC0000F931F930091C4011091C5012091C6019A
:100DD0003091C701602B712B822B932B0E94CF0681
:100DE0001F910F9108950F931F930091C4011091CB
:100DF000C5012091C6013091C70160237123822370
:100E000093230E94CF061F910F9108950F931F9374
:100E10000091C4011091C5012091C6013091C70114
:100E200060277127822793270E94CF061F910F9179
:100E300008950E94CB0608950E94190708950E9404
:100E40001C076093C0017093C1018093C20190930D
:100E5000C3010E947906089560E070E0CB010E9412
:100E60001F0708950F931F9341E050E060E070E08A
:100E70008A019B0104C0000F111F221F331F8A9596
:100E8000D2F7C901B8010E941F071F910F91089561
:100E90000F931F9341E050E060E070E004C0440F06
:100EA000551F661F771F8A95D2F78091C0019091D8
:100EB000C101A091C201B091C3018A019B01082B1D
:100EC000192B2A2B3B2BC901B8010E941F071F9128
:100ED0000F9108950F931F9341E050E060E070E0A0
:100EE00004C0440F551F661F771F8A95D2F7CB01A8
:100EF000BA0160957095809590950091C001109110
:100F0000C1012091C2013091C3016023712382236A
:100F100093230E941F071F910F9108950F931F9312
:100F200041E050E060E070E004C0440F551F661FD0
:100F3000771F8A95D2F78091C0019091C101A0914D
:100F4000C201B091C3018A019B01082719272A27F2
:100F50003B27C901B8010E941F071F910F910895F7
:100F60000F931F930091C0011091C1012091C20104
:100F70003091C301602B712B822B932B0E941F0792
:100F80001F910F9108950F931F930091C00110912D
:100F9000C1012091C2013091C301602371238223DA
:100FA00093230E941F071F910F9108950F931F9382
:100FB0000091C0011091C1012091C2013091C30183
:100FC00060277127822793270E941F071F910F9187
:100FD00008950895262F277091E001C0990F2A9552
:100FE000EAF723E0769567952A95E1F725E0269FB5
:100FF000F001279FF00D1124E40FF51F50E040E0B1
:10100000682F70E08191DF0111979B01042E02C0CF
:10101000369527950A94E2F72170219528272923F0
:1010200028272C934F5F5F4F4530510559F708959E
:10103000A82FA77023E0969587952A95E1F725E0DC
:10104000289FF001299FF00D1124E60FF71F50E0B3
:1010500040E080E0219130E00A2E02C036952795CD
:101060000A94E2F721703327042E01C0220F0A945C
:10107000EAF7822B4F5F5F4F4530510559F70895CE
:10108000262F983070F4863060F4682F70E086E088
:10109000989F600D711D112442EA51E0822F0E9439
:1010A000EA070895292F983068F4863058F490E0C4
:1010B00062EA71E036E0239F800D911D11240E94A9
:1010C0001808089580E00895B0E0A0E0EAE6F8E0AE
:1010D0000C940A248C01C090C001D090C101E09012
:1010E000C201F090C3018091C4019091C501A0910B
:1010F000C601B091C701C82AD92AEA2AFB2ACFE142
:10110000D0E0BC2ED701C6010C2E04C0B695A79521
:10111000979587950A94D2F780FD09C0219788F7A3
:10112000B12C8B2DCDB7DEB7E9E00C942624B801A5
:101130008C2F0E94FD0E019789F3F3CFCF93DF939D
:10114000EC010E946408BE010E94FD0EDF91CF9168
:1011500008951F93CF93DF93EB019091A101992301
:1011600039F0CB010E949E08DF91CF911F91089525
:10117000882369F0CB010E946408182F682FCE01E4
:101180000E944008BE01812F0E94FD0EEDCFCB01D1
:101190000E945208182FF6CF1F93CF93DF93C09170
:1011A000C80116E08091C9018C1304C0DF91CF9172
:1011B0001F910895D0E01C9FF0011D9FF00D112498
:1011C000E653FE4F40815181628173818481958114
:1011D0000E94C1062196C770E5CF4091FA01509157
:1011E000FB016091FC017091FD018091FE019091E5
:1011F000FF010E94C10608951F93CF93DF93809152
:10120000FF01807F09F049C08091FC01882309F427
:1012100044C08091C801C091C9016091FA017091E8
:10122000FB01A091FD01B091FE01D62FD72316E05E
:10123000C81799F190E0109711F0DF3F19F401966B
:101240008770F6CF189F9001199F300D1124F90176
:10125000E653FE4F41814713F2CF40814613EFCF53
:1012600042814111ECCF438154814A1B5B0B483CC6
:10127000510528F78091FF018F7080618093FF01F5
:10128000F901E153FE4F80818F70806180838AEF86
:1012900091E00E944F060E94CC08DF91CF911F91F0
:1012A0000895A1E1B0E0E7E5F9E00C9409248C0190
:1012B00085E0F801DE011D9601900D928A95E1F717
:1012C000F801E2808AEFC82E81E0D82E6091FD01FE
:1012D0007091FE016115710509F44EC19091FA01FA
:1012E0002091FB01892F82238F3F09F445C1408162
:1012F0005181A380B480F090FC01F501E61BF70B4F
:10130000FF2009F4EAC08091FF01382F307FE83CCC
:10131000F10508F0A3C031116DC0FE2C251316C0D5
:10132000941314C0E11012C08F7080618093FF018C
:101330000E94ED08C6010E944F068091FF01F8014E
:1013400085838F2D6196EAE00C942524A114B104C5
:1013500029F0842F85238F3F09F027C180E0F82FE3
:10136000F170DF2E80FF3CC08091C8012091C9013F
:1013700036E0821315C04D875E878D859E850E945D
:101380009E08292F22952F702230F0F0243018F576
:101390009F70F1F0F8019581907FD1F4D12C1EC09F
:1013A00090E0389FF001399FF00D1124E653FE4F75
:1013B0006181651306C06081641303C06281E61217
:1013C0000FC001968770D5CF9F7011F0882331F33D
:1013D000805E883018F3C8010E944F06FD2CB1CF03
:1013E000EE2009F4AECF8091FF0181608093FF0170
:1013F000F12CA7CF251306C0941304C0F801EE20EA
:1014000009F487C0C8010E94AF06882319F1EE20B5
:1014100009F18091FF01803270F02091FA01309142
:10142000FB0138872F831986BB86AA868C87CE015D
:1014300007960E944F0686E0F801AAEFB1E00190FE
:101440000D928A95E1F70E94FC080E94ED08FF24A6
:10145000F39477CFC8010E944F06F9CF311113C022
:101460007A2DB98AA88A6E2D89890E94B7068AEFDB
:1014700091E00E944F0686E0F60111928A95E9F705
:101480000E94ED08B5CF25130FC094130DC0E110D5
:101490000BC0F8018583C8010E944F0686E0F60163
:1014A00011928A95E9F74DCFC8010E94AF068823B3
:1014B00089F2EE2079F28091FF01803208F4BBCFEF
:1014C0002091FA013091FB013A8329831B82BD826E
:1014D000AC828E83CE010196ACCFE83CF10508F0DA
:1014E0003EC0FE2CEE2009F4B5CF25132AC094137C
:1014F00028C08091FF0180FD1BC0982F907FC1F014
:10150000F8018583903F31F0982F907F905F8F7026
:10151000892B8583C8010E944F0686E0F801AAEF57
:10152000B1E001900D928A95E1F70E94ED0809CF94
:1015300086E0F801AAEFB1E001900D928A95E1F7FB
:1015400000CFC8010E94AF06811175CF8091FF01C5
:1015500081608093FF01C8010E944F06F2CE7A2D70
:10156000B98AA88A6E2D89890E94B70686E0F6019D
:1015700011928A95E9F7D9CFEE2009F46BCFC80113
:101580000E94AF06F82E882309F464CF86E0F801A4
:10159000AAEFB1E001900D928A95E1F78AEF91E010
:1015A0000E9471030E94FC08C0CF81E08E25D7CE37
:1015B000ACE0B0E0EEEDFAE00C9410244F835887D5
:1015C00069877A878B879C87CE0107960E9451098D
:1015D000882369F08A859B85892B39F04F8158854E
:1015E000842F85238F3F09F06BC016E05FC086E033
:1015F000FE013796DE01119601900D928A95E1F772
:101600008A859B85892B89F388859F8189238F3FD4
:1016100061F32091C90130E0C901019687709927D3
:101620004091C8014817190671F40E948F06109264
:10163000C9011092C80186E0EAEFF1E0DF011D92D6
:101640008A95E9F7D2CF96E0929FD001939FB00D93
:101650001124A653BE4FFE01319601900D929A952A
:10166000E1F78093C9010E94CC08BFCF819FC001E0
:10167000112486539E4F0E9451098823E9F0E0917E
:10168000C8011E9FF0011124E653FE4F4081518195
:1016900062817381848195810E94C1068091C80115
:1016A00090E00196877099278093C8018091C801C6
:1016B0009091C9018913DACF2C96E3E00C942C2485
:1016C00069857A858B859C850E94C1068ECF682F9F
:1016D00080910001909101010E94A51B0895682F3F
:1016E00080910001909101010E94B31B08958091A7
:1016F0000001909101010E94C11B08958091200278
:101700008595859585950895809120028770089527
:1017100090912002977081E009F480E00895809113
:101720004302089590914302892B809343020895C8
:1017300080959091430298239093430208951092CC
:101740004302089590914202892B809342020895AA
:1017500080959091420298239093420208951092AE
:101760004202089580912102089508950E94B50BC8
:1017700008959091BA0292FF08C0909121029817A3
:1017800021F0809321020E94B60B089580912102DE
:10179000882329F01092210280E00E94B60B089560
:1017A000CF93DF93E0910001F0910101809143021A
:1017B0008083E0910001F0910101808190914202CB
:1017C000892B808390912102992381F0E09100017F
:1017D000F09101018081892B80838091000190919B
:1017E00001010E94111B81110E94C60BC0910001D2
:1017F000D091010140E250E060E072E0CE010E9431
:101800004C24892B59F080E2FE01A0E0B2E0019067
:101810000D928A95E1F7CE010E94BD1ADF91CF911A
:10182000089508950E94110C08959091BA0292FFB4
:1018300011C098E0899F90011124622B60932002CF
:101840000E944807809120028595859585950E9484
:10185000120C08950E94480708951092200280E01B
:101860000E94120C08959091200280958923809304
:101870002002282F277091F4282F082E000C330BFC
:101880009217130659F09091BA0292FF07C08595FE
:10189000859585950E946A070E942D0C0895909168
:1018A000BA0292FB222720F9281769F080FB92F9EF
:1018B0009093BA028091B9029091BA020E94A00C52
:1018C00082E00E94330C08958091BA0282FB88273F
:1018D00080F991E089270E944F0C089581E00E94D1
:1018E0004F0C089580E00E944F0C08956FEF7FEF3A
:1018F00090E080E00E948E24089590E080E00E94B5
:101900006A2421E0883E9E4F09F020E0822F08954E
:1019100082E090E00E946224089583E090E00E94BB
:1019200062240895CF9384E090E00E946224C82F3F
:1019300082E290E00E946224982F8C2FCF9108952C
:10194000CF93C92F682F84E090E00E9470246C2F01
:1019500082E290E00E947024CF910895AB01BC0117
:101960008FE090E00E9482240895AB01BC0183E1E6
:1019700090E00E948224089560E070E0CB010E9414
:10198000B50C089560E070E0CB010E94AE0C0E949F
:10199000BC0C089568EE7EEF90E080E00E948E24FB
:1019A00060E082E090E00E94702460E083E090E0DC
:1019B0000E9470241092C4011092C5011092C601B9
:1019C0001092C70160E084E090E00E94702464E01F
:1019D00082E290E00E94702460E085E090E00E9446
:1019E000702460E086E090E00E9470246FEF87E052
:1019F00090E00E94702440E050E0BA0188E090E05E
:101A00000E94822460E08DE090E00E94702440E01B
:101A100050E0BA0188E190E00E94822460E087E112
:101A200090E00E94702440E050E0BA018CE190E028
:101A30000E94822470E060E080E290E00E948E24A8
:101A400040E050E0BA0188E190E00E9482240E94C8
:101A5000C20C08950E94CA0C0895682F8EE090E091
:101A60000E94702408950E948E1C6093500270930F
:101A70005102809352029093530260934C027093F0
:101A80004D0280934E0290934F0208950895089559
:101A90000E94470D089508950E944B0D08958CE112
:101AA00090E10E949F1A0E94460D0E94480D0895E1
:101AB0000E9411120895089508950E945B0D0E94DE
:101AC0005C0D08950E943E100E941E0308950E941E
:101AD000791C0E94DC0F0E942C120E9475110E943A
:101AE000620D0E94AE160E9436120E944C0D08959F
:101AF000AAE0B0E0EEE7FDE00C9407240E94981104
:101B0000982E81110E94330D84E4A82E82E0B82E15
:101B100010E000E0802E802F0E946B10E82EF5016F
:101B2000C1905F01C816B1F18091540281FD0E94FD
:101B30007110D12CFF24F394CE248C2D8F2129F108
:101B40000E94580D882399F0DE828F82EF2081E079
:101B500009F480E088870E94821C8160782F9A8730
:101B600089874E815F8168858A850E943C03F801E0
:101B7000EC5BFD4F8081F826F08281E0911001C07E
:101B800080E02A96ECE00C942324D394FF0CF6E03A
:101B9000DF12D3CF0F5F1F4F0830110509F0BACF06
:101BA0008FEF89838A831B820E94821C8160782F39
:101BB0009D838C8349815A816B818D810E943C0376
:101BC000DCCF0E94780D0E9411120E94B2150E9473
:101BD00031030895CF93DF930E94020FEC0181152A
:101BE00021E5920708F042C0811530E5930708F01F
:101BF0009DC0883E910530F5803E910508F092C069
:101C0000883A910588F4853A910508F084C08130BE
:101C1000910509F487C0009709F484C0049708F07F
:101C200081C0D0E0C0E07EC08F3B9105D0F7C85A9C
:101C3000D0E0CC0FDD1FCF59DE4F0990D881C02DE9
:101C4000D46470C08115904250F4C11581E0D8076A
:101C500008F068C0CD3ED10520F3D06563C0C11542
:101C600090E4D907F0F2DF70D06A5CC0811525E5F9
:101C7000920700F5811534E5930708F08BC08115B4
:101C800043E5940708F073C0C11582E5D80708F44E
:101C900069C0CE018370992721E030E002C0220F95
:101CA000331F8A95E2F7C695C69580E2C89FE0018A
:101CB000112454C0C11599E5D907A8F4C11528E528
:101CC000D20708F06CC0C11536E5D30708F0A9CFDC
:101CD0008C2F0E94990FC82FD0E0DC2FCC27CC2767
:101CE000DF71D0621FC0C1154AE5D40708F45CC09B
:101CF000CE0190568115904208F093CF8D2F8F71B1
:101D00000E94990F90E0982F882788279F719C0147
:101D10002C2BE901E6CFC55AD0E0C157DE4FC88170
:101D2000D0E0D064CE01DF91CF910895E4E09695A4
:101D30008795EA95E1F783702C2F269526952370D9
:101D400040E2249F90011124382B8C2F8370C1E036
:101D5000D0E002C0CC0FDD1F8A95E2F7C22BD32B57
:101D6000DC68E0CFDC2FCC27C16FD06ADBCF83707B
:101D7000992721E030E002C0220F331F8A95E2F755
:101D8000C695C69590E2C99FE0011124C22BD32BC2
:101D9000DA68C8CFD82FCC27C46FD06AC3CFDC2F66
:101DA000CC27C06FD06ABECF8C2F8F700E94990F46
:101DB00034E0D695C7953A95E1F7CF709C2FEC01AA
:101DC000D069B0CF972F7830A8F4663098F470E0DF
:101DD00026E0929F600D711D1124FB0190E3899F05
:101DE000E00DF11D1124EE0FFF1FE455FF4F85910B
:101DF0009491089580E090E008950E94E20E0E9480
:101E0000EA0D089582389105B1F1B0F4813391055E
:101E100009F475C048F48932910509F469C08A3221
:101E2000910509F473C008958533910509F459C0EB
:101E30008933910501F10895833E9105A9F138F4A4
:101E4000803E9105F9F0823E910549F10895863E64
:101E50009105A9F1873E9105C9F1843E910519F5D7
:101E60002091BA0221FF1FC08091B90284FD14C0E5
:101E700087EE90E008952091B9022370A1F080EEE2
:101E800090E008952091B90220FD47C03091BA0238
:101E900030FF09C024FF44C090E080E004C02091DE
:101EA000B90222FDF7CF08952091B90222FD3BC06F
:101EB0003091BA0230FDE3CF24FFF5CFEDCF209172
:101EC000B90223FFF0CF24FDE7CFD2CF2091B90292
:101ED00023FD2CC03091BA0231FFEECF84EE90E0AA
:101EE00008952091B90225FFDECF89E290E00895A0
:101EF0002091B90225FFD7CF85E390E00895209186
:101F0000B90226FFD0CF8AE290E008952091B9026D
:101F100026FFC9CF81E390E0089589E390E008951A
:101F200083EE90E0089582EE90E0089586EE90E0D2
:101F300008959091B90292FF06C0282F2871283089
:101F4000F9F4877F846093FF06C0282F2871283119
:101F5000F1F4877E84612091BA0220FF06C0382FF9
:101F600038713830D9F4877F816021FF06C0282F6F
:101F700028712831D1F4877E816194FD877E089590
:101F8000282F24712430F9F68B7F8860DCCF282F2E
:101F90002471243101F78B7E8861DDCF382F3171B8
:101FA000313019F78E7F8860E0CF282F21712131E1
:101FB00021F78E7E8861E1CF1092B5021092B602B1
:101FC0001092B7021092B8020895CF92DF92EF926A
:101FD000FF926B017C010E94111281110EC00E94C0
:101FE0008E1CC61AD70AE80AF90AC092B502D09226
:101FF000B602E092B702F092B802FF90EF90DF9045
:10200000CF9008950F931F930E941112882329F0F7
:102010000E948E1C1F910F9108950E948E1C0091AA
:10202000B5021091B6022091B7023091B802600F4C
:10203000711F821F931FEECF80E008950E94760CDF
:1020400008950E9498118FE39CE90197F1F700C071
:1020500000000E9498110E94291281110AC084E098
:102060000E946B1081FF04C00E941E100E94E91C98
:10207000089580E0F5CF0E94211008950E947D0C04
:10208000811102C00E942A0D0E94880C8093540284
:102090000E94920C9093BA028093B9020E943B1066
:1020A0000E948D0C682F70E090E080E00E94DD06B9
:1020B0006091C0017091C1018091C2019091C301F2
:1020C0000E941C07089508950E94631008950895C2
:1020D0000E9467100895E82FF0E0EC53FD4F8081D7
:1020E0000895089580EA8A95F1F7089500C008954B
:1020F0000E947210089508950E947B100895EF9237
:10210000FF921F93CF93DF9300D000D0CDB7DEB7FF
:102110000E941112182F6091CC02882309F447C045
:1021200019821A821B821C82862F90E09E012F5FEB
:102130003F4F7901B9018C539D4F0E94441288236F
:10214000E9F08091BB0290E044E050E0B7018C538D
:102150009D4F0E944C2421E020935502892BC9F405
:1021600010E00E949B02812F0F900F900F900F9014
:10217000DF91CF911F91FF90EF90089580915502CC
:10218000882371F384E0F70111928A95E9F71092A0
:102190005502E091BB02F0E0EC53FD4F89819A813A
:1021A000AB81BC8180839183A283B383DACF70E05B
:1021B0006C537D4F8091BB0290E08C539D4F0E94E9
:1021C000CB120E947C10CFCFF894E82FE295EF70ED
:1021D000F0E031A1282F2F7081E090E001C0880F3E
:1021E0002A95EAF7982F9095932391A392A1892B92
:1021F00082A378940895CF93DF9384E90E94E4103A
:1022000086E60E94E41087E90E94E41086EC0E94B2
:10221000E410C2E9D1E089918F3F11F00E94E410EF
:1022200081E0C839D807B9F7DF91CF910895B0E0C0
:10223000A0E0EDE1F1E10C940B24EC01D62E062F89
:1022400010E0C80188569E4F7C01FC0180818F3FC1
:1022500009F444C0F894E82FE295EF70F0E091A102
:102260008F7021E030E001C0220F8A95EAF7892FB4
:10227000822B81A382A12095282322A378940E94F7
:102280007610E2E9F1E031E0C12C21912F3F59F1C4
:10229000A22FA295AF70B0E090968C9190E02F7035
:1022A00002C0959587952A95E2F780FD1CC0832F83
:1022B000C82A330F81E0E839F80739F7F701808140
:1022C0008F3F11F00E94E41061E0C11001C060E096
:1022D0008D2D0E947810C00FD11FC882CDB7DEB7F8
:1022E000E8E00C94272480E0E3CF80910201809104
:1022F000020194E0811190E09093CC0284E0891B6C
:102300008093BB020E94FB1088E0E4ECF2E0DF0166
:10231000982F1D929A95E9F7ECEBF2E0DF011D9200
:102320008A95E9F784E00E94DB110E9498020895E3
:10233000A8E0B0E0EEE9F1E10C940D248E010F5F0E
:102340001F4F88E0F80111928A95E9F7F12C6F2D63
:10235000C8010E941711F394F4E0FF12F8CF48E08F
:1023600050E0B8018CEB92E00E944C247C0121E00B
:10237000892B09F420E0E114F10441F088E0F80130
:10238000ACEBB2E001900D928A95E1F76091CC023E
:1023900070E06C537D4F44E08CEB92E00E94DC11C6
:1023A00081E090E0E114F10411F40E947F1028967E
:1023B000E6E00C9429240895FF920F931F93CF9386
:1023C000DF93F82E092F162FD72FC42F222349F081
:1023D00081E0809358020E94821C90935702809360
:1023E0005602809158028823A1F080915602909164
:1023F00057020E949A1C059760F0EF2DF02FA12F35
:10240000BD2FCE0FDF2FD11DEC17FD0739F4109231
:102410005802CDB7DEB7E5E00C942A2481918D9364
:10242000F3CF80915B02811107C00E94DA238823D9
:1024300051F081E080935B0281E090915B029130EA
:1024400009F080E0089582E080935B020E94D5232A
:10245000F3CF0E94111208950E9429128093020165
:102460000E94111281110E947A1208950E94111285
:10247000811102C00E947D12089581E090915C025A
:102480009A3008F080E008950F931F93CF93DF9365
:10249000EC018B0180915C028A30B8F4B801CE0166
:1024A0000E94C812C82F811122C080915C028F3F08
:1024B000B9F40E94821C90935A02809359028C2F87
:1024C000DF91CF911F910F910895809159029091C2
:1024D0005A020E949A1C843F914000F7C0E0EFCF5F
:1024E0008F5F80935C028A3020F7C1E0E8CF1092C2
:1024F0005C02E5CF0E943D1908950E94401908959D
:10250000B0E0A0E0E6E8F2E10C940C247901C82FD9
:10251000880FDD0B41155105A9F0FE0193E0EE0F88
:10252000FF1F9A95E1F7ED5FFE4F81819281835AFB
:102530009D4F208130E04217530708F49A01A9010A
:102540000E945924CE010E94291AD82E8823D1F046
:1025500001151105B9F083E0CC0FDD1F8A95E1F775
:10256000FE01ED5FFE4F438150E00417150708F4AC
:10257000A801CD5FDE4F6C817D81635A7D4FC7011D
:102580000E9459248D2DCDB7DEB7E7E00C942824A6
:102590000E94C21308950E94D9130895A4E0B0E0E8
:1025A000E4EDF2E10C940F246091720270917302D9
:1025B00080917402909175020E94A91C11E064360A
:1025C00071058105910518F10E9402106E5F7F4F21
:1025D0008F4F9F4F69837A838B839C8310E000E049
:1025E00030E020E044E050E0BE016F5F7F4F82E0CA
:1025F0000E948012182F882351F00E948E1C609335
:102600007202709373028093740290937502812F0B
:102610002496E4E00C942B24B0E0A0E0E2E1F3E1A6
:102620000C9409247C015B016A010E943D1201E0C7
:1026300010E0882311F00AE010E0C1E0D0E0B5011D
:10264000C701F6010995811104C021960C171D07D9
:102650002CF4CDB7DEB7EAE00C942524CC9F900192
:10266000CD9F300D300D112490E080E045E34A9578
:10267000F1F70000019682179307C1F7E0CFA5E0BC
:10268000B0E0E5E4F3E10C9409245B01E0909C01E7
:10269000F0909D0101E010E09E012B5F3F4F50E064
:1026A00040E070E060E080E00E948012182F8823F4
:1026B00009F44BC067018FEFC81AD80A60916E0207
:1026C00070916F0280917002909171020E94A91C1A
:1026D000643671058105910580F104E010E09E01EA
:1026E0002F5F3F4F50E040E070E060E081E00E94EB
:1026F0008012F82E64E070E0C6010E94AF1611E06F
:102700009D81981310E01F2159F10E948E1C609347
:102710006E0270936F0280937002909371028981B0
:102720009A81AB81BC8180936A0290936B02A093E3
:102730006C02B0936D0211E013C064E070E0C6015A
:102740000E94AF169D818913C8CFF70181819281C4
:10275000A381B48189839A83AB83BC831111DFCFBA
:1027600080916A0290916B02A0916C02B0916D020F
:10277000F50180839183A283B383812F2596EAE0BC
:102780000C9425240F931F93CF93DF93EC018B01BF
:102790004FE353E10E940C13882331F04EEC52E1D9
:1027A000B801CE010E940C13DF91CF911F910F91C0
:1027B00008950F931F93CF93DF93C0919C01D09105
:1027C0009D01CE01019624E0FB01DC0101900D92F8
:1027D0002A95E1F764E070E00E94AF1688836D816E
:1027E0007E818F8198850091660210916702209109
:1027F000680230916902601771078207930751F0F0
:1028000060936602709367028093680290936902F6
:102810000E94E50FDF91CF911F910F9108950E94C3
:10282000B01E0E94670D0E94BD1E08950E94C21E28
:102830000E94E10D0E94DC1E08950E941B1C0E9454
:10284000961E0E944F0D0E940F140E9416140E94A3
:102850005D0DFBCF80917C0280FF0DC06091200157
:1028600070E0660F771F6038710570F561157105AE
:1028700069F1862F089581FF07C06091200184E0EF
:10288000689FB0011124EFCF6091200182FD0AC042
:1028900080917B028823A9F020911F016091200183
:1028A000821710F088E0ECCF869FC001112433E03E
:1028B000880F991F3A95E1F7622F70E00E94E72395
:1028C000D2CF68E070E0D5CF8FE7089581E008951A
:1028D00080917C0280FF0CC060911C0170E07595B6
:1028E0006795759567956115710549F1862F08956E
:1028F00081FF06C060911C0170E075956795F3CF6C
:1029000060911C0182FD0BC090917A029923A1F085
:1029100060911B0180911C01961738F0682F70E0C0
:102920006038710500F38FE70895899FC001112475
:1029300070E00E94E723F4CF61E070E0D7CF81E040
:1029400008958D3E31F40E942A148195809380026F
:1029500008958E3E19F40E942A14F8CF8F3E31F468
:102960000E942A14819580937F020895803F19F474
:102970000E942A14F8CF893F29F40E94681480939A
:10298000810208958A3F21F40E9468148195F7CF4F
:102990008B3F31F40E9468148195809382020895E0
:1029A0008C3F19F40E946814F8CF9FE0980F98307C
:1029B00070F4815F990B21E030E001C0220F8A950D
:1029C000EAF780917E02822B80937E0208958D3FEC
:1029D00031F480917C02816080937C0208958E3F67
:1029E00021F480917C028260F7CF8F3FB9F780910C
:1029F0007C028460F1CF40917F028D3E59F480913A
:102A0000800287FF0DC01092800241110BC010920E
:102A10007B0208C08E3E81F48091800218169CF3E0
:102A2000442381F08091810290918202892B09F0E8
:102A30005AC010927A0208958F3E49F447FFF0CFB2
:102A400010927F02809180028111ECCFE0CF803F15
:102A500019F41416ACF3E4CF90918102893F29F464
:102A60001916F4F610928102DBCF8A3F19F497FF12
:102A7000D7CFF8CF909182028B3F29F497FFD0CF28
:102A800010928202CDCF8C3F19F41916CCF3C8CF27
:102A90009FE0980F983090F4815F990B21E030E02F
:102AA000B90102C0660F771F8A95E2F7CB018095C6
:102AB00090917E02892380937E02B2CF8D3F31F4C4
:102AC00080917C028E7F80937C02AACF8E3F21F47E
:102AD00080917C028D7FF7CF8F3F09F0A1CF80914D
:102AE0007C028B7FF0CF08950E94821C9C01909104
:102AF0007F0280918002982B21F0309379022093FD
:102B000078029091810280918202982B21F030937B
:102B10007702209376028DE792E00E94D71A0895FB
:102B200086E0EDE7F2E0DF011D928A95E9F7109269
:102B30007B0210927A0210927C020895FC0182813D
:102B400081110EC0838181110BC08481811108C065
:102B500091E08581811101C090E0892F81700895F5
:102B600081E0FCCFA6E0B0E0E8EBF5E10C941024A6
:102B700086E0EDE7F2E0DE01119601900D928A9574
:102B8000E1F710927F02109280021092810210925F
:102B900082028B819C81892B89F0809178029091AF
:102BA00079020E949A1CAC0190917B029923C9F191
:102BB000809121018417150608F440C08D819E8103
:102BC000892B91F080917602909177020E949A1C55
:102BD000AC0190917A02992309F471C080911D0192
:102BE0008417150608F479C0BE016F5F7F4F8DE72B
:102BF00092E00E94D31B811105C08DE792E00E94F4
:102C00009E1581110E94741586E0FE013196ADE794
:102C1000B2E001900D928A95E1F72696E3E00C94DC
:102C20002C24209122018AE0289F9001112424174E
:102C3000350720F69F5F90937B0202C09F3FD1F73C
:102C40001B81112359F00E942A149FEF11160CF4D6
:102C500091E0899F802D112480937F021C81112394
:102C600059F00E942A149FEF11160CF491E0899FED
:102C7000802D11248093800230917F02332309F448
:102C80009DCF20918002222309F498CF45EB340395
:102C9000C0011124992359F090937F0245EB24033E
:102CA00090011124332339F03093800287CF81E0E3
:102CB00080937F02F3CF81E0809380027FCF2091C9
:102CC0001E018AE0289F900111242417350708F07F
:102CD0008BCF9F5F90937A0202C09F3FD1F71D81F7
:102CE000112359F00E9468149FEF11160CF491E023
:102CF000899F802D1124809381021E81112359F018
:102D00000E9468149FEF11160CF491E0899F802DAA
:102D100011248093820230918102332309F464CF1D
:102D200020918202222309F45FCF45EB3403C001D6
:102D30001124992359F09093810245EB24039001CB
:102D40001124332339F0309382024ECF81E08093F7
:102D50008102F3CF81E08093820246CF0895FC0187
:102D6000680F791F8FEF91E3E617F70709F40895CD
:102D70002191822728E030E087FF06C0880F89274D
:102D800021503109C9F7F0CF880FFACFCF93DF93E5
:102D9000EC01FB018281882309F433C1C430FDE5D5
:102DA000DF07C0F5CB3F9CE5D90730F49E012250E8
:102DB0003C4524313105B0F50E94920C9093BA0243
:102DC0008093B902C1318CE5D80709F4EEC008F050
:102DD00069C0C930ECE5DE0709F4D5C0C8F5C530D7
:102DE0008CE5D80709F4C7C000F5C330ECE5DE0771
:102DF00009F4B9C008F0BBC0C230DC4509F4ADC06D
:102E00008091B9029091BA020E94A00C0E948F0694
:102E100080E008C0C236EDE5DE0771F2C63AFDE596
:102E2000DF0751F2DF91CF9108958091B90280625E
:102E3000C7309CE5D90709F493C08091B90280613D
:102E4000C830DC4508F48CC08091B902806488C029
:102E50008091B9028B7FCD30FCE5DF0709F480C09B
:102E600098F48091B9028E7FCB309CE5D90709F4A4
:102E700077C08091B9028C60CC30DC4508F470C01A
:102E80008091B9028D7F6CC08091B9028F7ECF3066
:102E9000FCE5DF0709F464C008F47BC08091B90247
:102EA0008F7D5EC0CE3F9CE5D90709F47AC050F50E
:102EB000C531FCE5DF0709F486C098F48091B902BA
:102EC000837FC3319CE5D90709F44AC008F471C077
:102ED0000E948F069091B902892F97FB87F980583D
:102EE0003FC0CC3FFCE5DF0709F449C008F055C0FE
:102EF0008091BA028160CB3FDC4509F081CF80939D
:102F0000BA027ECFC230EDE5DE0709F468C0A8F44E
:102F1000C1158DE5D80709F452C08091BA028360CB
:102F2000C130DD4560F38091BA02982F9095917081
:102F30008E7F892B90FB81F9E2CFC236EDE5DE076B
:102F400009F451C0C63AFDE5DF0709F453C0C330A8
:102F5000DD4509F055CF80E043C08091B902816022
:102F60008093B9024DCF8091B9028260F9CF8091F0
:102F7000B9028460F5CF8091B9028860F1CF809169
:102F8000BA028260BCCF0E948F068091B90280682D
:102F9000E7CF8091B902877FE3CF8091BA028E7F1D
:102FA000AECF8091BA028D7FAACF8091B9028F7B7C
:102FB000D7CF0E948F068091B9028F77D1CF8091B1
:102FC000BA028C7F9CCF8091B90282FB992790F93D
:102FD00021E0922790FB82F990FB83F9C1CF81E039
:102FE0000E942D0D0DCF9091B902892F8F7E94FFF5
:102FF0008061B6CF9091B902892F8E7F90FF81605A
:10300000AFCF81E00FCFCF93DF93EB0186319C45AB
:1030100011F50E948F0B9A81992399F08A7A91E099
:1030200009F490E090938302811109C089E20E9423
:10303000670B0E94D00B80E0DF91CF91089585E36C
:10304000F6CF80918302811104C089E20E946F0B48
:10305000F0CF85E3FBCF81E0EFCF0F931F93CF93AA
:10306000DF93C42FD22FFC0182818823C9F04093C3
:1030700086020E94821C909385028093840280E2E3
:103080008C0F883040F4C77081E001C0880FCA956A
:10309000EAF70E941604DF91CF911F910F910895D6
:1030A00010918602141332C080918402909185029F
:1030B0000E949A1C883C910548F5C0E2CD0F1D176F
:1030C000B9F080E2810F883040F4177081E001C0D0
:1030D000880F1A95EAF70E941D04C83048F481E071
:1030E0009D2F977001C0880F9A95EAF70E941604E9
:1030F000802F0E940D04C83070F6D77081E001C0A7
:10310000880FDA95EAF70E941D04C5CF80E28C0F84
:10311000883008F6C77081E001C0880FCA95EAF7C9
:10312000F2CF0F939C01CB01243F4CE5340759F1BA
:10313000A8F4293DFCE53F0701F12A3D4CE53407A1
:10314000D1F1283D3C4591F406E221EE41EE68EDD7
:103150007CE50E942D1880E00F910895263FFCE544
:103160003F07E9F0B0F0273F3C45F9F0FC018281D0
:10317000882339F110928602EFCF07E225EE45EE63
:1031800069ED7CE5E6CF06E221EE40EE64EF7CE5FA
:10319000E0CF07E225EE44EE65EF7CE5DACF06E20C
:1031A00021EE42EE66EF7CE5D4CF07E225EE46EE57
:1031B00067EF7CE5CECF08E221E045EE6AED7CE5E5
:1031C000C8CF81E0C9CF8EE14A9B02C08150E1F7B0
:1031D0004A9BFECF08955A9880E28A95F1F75A9A51
:1031E0000895FC013BE03A95F1F798E020E080E09B
:1031F00031E040E14A95F1F7880F4A9B02C08160B7
:10320000232742E04A95F1F7000040E14A95F1F7A3
:10321000915079F790E19A95F1F799B132E03A95AA
:10322000F1F7000040E14A95F1F792FB992790F9F8
:1032300092272081920F90830895A1E0B0E0E3E20D
:10324000F9E10C940D2419828C017C01E60EF11C2D
:103250000E151F0541F481E09981911180E02196BE
:10326000E6E00C9429240E94E318CE0101960E9406
:10327000F118F80181938F01EBCF529A5A9A089571
:1032800052985A9AEA9AE9E6F0E080818F7C80832E
:1032900008956150770B91E001C0990F6A95EAF7A4
:1032A00020E031E0911108C0222391F05A9A80E287
:1032B0008A95F1F75A980895492F482339F05A9A78
:1032C000232740E24A95F1F79695ECCF5A98F9CF2B
:1032D0005A98EDCFFF920F931F93CF93DF93EC019A
:1032E0008C01060F111DC017D10729F4CDB7DEB729
:1032F000E5E00C942A24F9900E94EB1868E08F2DE9
:103300000E944919F0CF1F920F920FB60F9211240D
:103310000F931F932F933F934F935F936F937F93DD
:103320008F939F93AF93BF93EF93FF93CF93DF93CD
:103330000F92CDB7DEB719820E94E318CE01019635
:103340000E94F118082F069506950695282F2295BC
:103350002570902F9570290F922F937026952695A2
:10336000920F982797708981982B09F05CC00430E0
:1033700008F059C080E18A95F1F75A9A529A82E092
:103380008A95F1F700C05A9888E0089F80011124BF
:10339000D801AD5FBE4F1696ED91FC91179730970F
:1033A000A9F060919C0170919D0114962D913C9122
:1033B0001597260F371F11968D919C911297680FC4
:1033C000791F13964C9113978C910995F801ED5F35
:1033D000FE4F6381662351F020919C0130919D0145
:1033E00084819581820F931F0E946A190E94EB18B5
:1033F00080E18A95F1F75A9852985A9A80E18A9515
:10340000F1F7F801ED5FFE4F6081662351F02091E6
:103410009C0130919D0181819281820F931F0E94B6
:103420001D190E94E3180F90DF91CF91FF91EF914A
:10343000BF91AF919F918F917F916F915F914F91CC
:103440003F912F911F910F910F900FBE0F901F90E2
:1034500018950F931F93CF93DF93EC0104970CF013
:103460004CC0F894529A5A9885E08A95F1F700007A
:103470009C2F969595708C2F8570980F892F83704F
:103480009695969523E0CC0FDD1F2A95E1F7980FCE
:103490008E01092B0E94EB1800C068E0802F0E946B
:1034A000491980E18A95F1F752985A9A4A9B1EC0B1
:1034B00087E090E04A991CC0FE01ED5FFE4F6381FA
:1034C0006623F9F020919C0130919D0184819581C2
:1034D000820F931F0E941D19811113C0529A5A9A8C
:1034E0007894DF91CF911F910F91089500C0DECFA6
:1034F000019729F4529A5A9A789480E0F2CF00C04A
:10350000D9CF0E94E31880E28A95F1F75A98529A2F
:1035100080E18A95F1F7CD5FDE4F6881662351F037
:1035200020919C0130919D0189819A81820F931F86
:103530000E946A190E94EB18789481E0D2CF909390
:103540009F0180939E01089590938D0280938C0239
:1035500008950E941112811103C08091870208957D
:10356000E0918C02F0918D02309729F00190F0816A
:10357000E02D0995089580E00895E0918C02F09186
:103580008D02309799F020912F01222359F020913C
:10359000B90227FF07C0DC012C9111962C931197DB
:1035A00026E02C930280F381E02D09950895E091A7
:1035B0008C02F0918D02309739F022E0DC012C93DF
:1035C0000480F581E02D0995089520918A023091BB
:1035D0008B022817390771F090938B0280938A022F
:1035E000E0918C02F0918D02309721F00680F781F6
:1035F000E02D0995089520918802309189022817BD
:10360000390771F09093890280938802E0918C02CF
:10361000F0918D02309721F00084F185E02D09951D
:103620000895FC01329680912F01882321F080912A
:10363000B9029EE187FF96E080E0915008F408957A
:1036400021912223D1F38F5FF8CF662301F12091DE
:103650002F012223F1F02091B90227FF1AC0462F33
:103660004695469546954E3190F4677021E030E0DE
:1036700002C0220F331F6A95E2F7840F911DFC01EF
:10368000828190E02823392381E0232B69F480E0B4
:103690000895FC01329608962191261721F0E8172B
:1036A000F907D1F7F4CF81E008959C01FC0132962F
:1036B0009FEF80E04191461751F09F3F19F441116F
:1036C00001C0982F8F5F8630A9F79F3F09F40895B6
:1036D000290F311D97FD3A95F90162830895FC0188
:1036E000329608962191261303C0DF0111971C9290
:1036F000E817F907B9F70895E62FE695E695E695F8
:10370000EE3168F4E80FF92FF11D677021E030E029
:1037100001C0220F6A95EAF78281822B8283089585
:10372000E62FE695E695E695EE3170F4E80FF92F71
:10373000F11D677021E030E001C0220F6A95EAF7C1
:103740002095828128232283089520912F0122230E
:1037500039F02091B90227FF03C00E947C1B089515
:103760000E94551B089520912F01222339F02091AA
:10377000B90227FF03C00E94901B08950E946F1B8F
:103780000895FC01329680912F01882351F0809199
:10379000B90287FF06C08EE1DF011D928A95E9F725
:1037A000089586E0F9CF46E050E00E944C2421E0E5
:1037B000892B09F420E0822F089508950E94DD1BD3
:1037C0000895811106C081E080938E020E94DE1B65
:1037D000089582E0F9CF83E080938E020E94DE1B81
:1037E00008950E94E11B089581E080938E020E945B
:1037F000DE1B08950E94F41B0895089508950E9409
:10380000FE1B0895089508950E94FD1B0895CF930F
:103810000E94021C0E9498110E94031CC0E08C2F81
:103820000E946B10811105C0CF5FC830C1F7CF91E6
:10383000089581E0FCCF85B7806885BF85B7806833
:1038400085BF08951F921FB61F9211248F939F93D7
:10385000AF93BF9380918F02811113C08091CD02ED
:103860009091CE02A091CF02B091D0024196A11DBD
:10387000B11D8093CD029093CE02A093CF02B0935E
:10388000D002BF91AF919F918F911F901FBE1F904B
:1038900018958091D502843031F10E940B0310926B
:1038A0008F0288E190E020E40FB6F894A895809309
:1038B00060000FBE2093600083B7817F846083BF68
:1038C00083B7816083BF7894889583B78E7F83BFE9
:1038D0000FB6F894A895809160008861809360008D
:1038E000109260000FBE08950E948F060E94100380
:1038F000089582E084BD93E095BD9AEF97BD8093D3
:103900006E0008952FB7F8948091CD029091CE0269
:10391000A091CF02B091D0022FBF08952FB7F89495
:103920006091CD027091CE028091CF029091D00231
:103930002FBF08959C014FB7F8948091CD029091CC
:10394000CE02A091CF02B091D0024FBF821B930B49
:103950000895CF92DF92EF92FF922FB7F894C09024
:10396000CD02D090CE02E090CF02F090D0022FBFD7
:10397000A7019601261B370B480B590BCA01B90149
:10398000FF90EF90DF90CF90089578941F921FB62C
:103990001F9211248F939F93AF93BF938091CD0279
:1039A0009091CE02A091CF02B091D0020196A11DBC
:1039B000B11D8093CD029093CE02A093CF02B0931D
:1039C000D002BF91AF919F918F911F901FBE1F900A
:1039D000189587E797E7909301088093000888E19E
:1039E0009AE00FB6F894A895809360000FBE90936C
:1039F0006000FFCF88E19AE00FB6F894A895809315
:103A000060000FBE90936000FFCF8091B3020895D5
:103A100008959C0182E08093E9009FEF8091E80087
:103A2000915085FD06C085ED8A95F1F70000911152
:103A3000F5CF8091E80085FF0CC050E040E066E0E3
:103A400070E0C9010E944E1F8091E8008E7780933C
:103A5000E8000895CF93DF93EC0180912F01882334
:103A6000B1F18091B90287FF32C060E282E08093B9
:103A7000E9008FEF9091E800815095FD06C095ED2B
:103A80009A95F1F700008111F5CF8091E80085FF4C
:103A90001BC080912F0170E050E040E0811104C014
:103AA00050E040E068E070E0CE010E944E1F80913F
:103AB000E8008E778093E80080E2FE01A3E9B2E09F
:103AC00001900D928A95E1F7DF91CF91089568E01A
:103AD00081E0CDCF80939002709392026093910227
:103AE0008091D502843001F582E08093E9008FEF68
:103AF0009091E800815095FD06C095ED9A95F1F7FB
:103B000000008111F5CF8091E80085FF0DC050E0E5
:103B100040E063E070E080E992E00E944E1F8091F7
:103B2000E8008E778093E8000895BC0184E00E944D
:103B30006A1D0895BC0183E00E946A1D089580916A
:103B4000D402811109C00E94DE200E943B21809195
:103B5000E20084608093E20008951092D4020895F8
:103B60000E94F41B08956091D10281E0611101C0AF
:103B700080E00E94EB1B08959091D50281E0943083
:103B800009F080E06091D1020E94F11B089542E0AB
:103B900061EC81E00E945A2042E261EC82E00E94E6
:103BA0005A209091D50281E0943009F080E0609134
:103BB000D1020E94E11B08958091D702833009F45D
:103BC00061C030F48130D1F1823009F49EC0089593
:103BD0008A3009F48AC08B3009F46FC0893009F04B
:103BE00050C08091D602813209F04BC08091DA0238
:103BF0009091DB02029708F044C08091E800877F33
:103C00008093E8008091E80082FF37C09091F30034
:103C10008091F200029731F48091F100813011F02F
:103C2000863021F48091F1008093B3028091E80006
:103C30008B778093E8000E948E2023C08091D6026B
:103C4000813AF9F48091E800877F8093E8008091C1
:103C5000DA029091DB02892B61F460E283E992E061
:103C600070E00E949D1F8091E8008B778093E800B0
:103C7000089560E090E080E0F3CF8091D50281115B
:103C8000C1CF08958091D602813AD9F78091DA02A6
:103C90009091DB02892BA9F78091E800877F8093C0
:103CA000E8008091E80080FFFCCF80912F01809395
:103CB000F1008091E8008E77BCCF8091D6028132EE
:103CC00001F78091DA029091DB02892BD1F6809185
:103CD000E800877F8093E8000E948E208091D802C0
:103CE00080932F010E948F0608958091D602813221
:103CF00041F68091E800877F8093E8000E948E2043
:103D00008091D9028093B40208958091D602813ABD
:103D100009F0B7CF8091E800877F8093E800809119
:103D2000E80080FFFCCF8091B402C1CF84B7877FC9
:103D300084BF0FB6F894A895809160008861809345
:103D40006000109260000FBE80E890E00FB6F8941B
:103D500080936100909361000FBE0E94FA1B08954A
:103D60000E94DE200E943B21E2EEF0E08081846030
:103D7000808378940E94BA23089583E291E00E94A0
:103D8000A41A08958091D502853031F48091D5022E
:103D9000853019F00E94741C08950E94491C80917E
:103DA000D302882399F30E94071C882379F30E9489
:103DB000381F0E948F06EACF08950E94E01E0895E2
:103DC000292F33272330310519F168F421303105CB
:103DD00009F444C02230310509F445C090E080E088
:103DE00030E020E025C02132310549F12232310591
:103DF000A9F780E490E023E134E061157105C1F09A
:103E000086EB90E02DE533E06130710589F0E6CF77
:103E100099278130910581F0009729F00297F1F6FA
:103E2000ECEEF2E002C0ECE0F3E0849190E09F0160
:103E3000FA01318320830895EAEFF2E0F6CF89E0BA
:103E400090E022E233E06115710591F389E090E0A2
:103E50002BE333E06130710559F3C0CF82E190E08C
:103E60002BE433E0E5CF8BE390E020E133E0E0CFDB
:103E700080E189BD82E189BD09B400FEFDCF80915A
:103E8000D8008F7D8093D8008091E000826080937D
:103E9000E0008091E00081FDFCCF0895AF92BF92D9
:103EA000CF92DF92FF920F931F93CF93DF936C011A
:103EB000EB018A010E94AD20F82E811123C001156B
:103EC000110539F0F80180819181C81BD90BC80E0A
:103ED000D91EB12CA12C2097A9F08091E80085FD76
:103EE00022C08091E8008E778093E80001151105CB
:103EF000A1F0F80180819181A80EB91EB182A08243
:103F000085E0F82E8F2DDF91CF911F910F91FF90BB
:103F1000DF90CF90BF90AF9008950E94AD2088238E
:103F2000D1F2F82EEFCFF60181916F018093F1006D
:103F30002197FFEFAF1ABF0ACECFFC018091DC02C0
:103F40009091DD0286179707A0F06115710529F49D
:103F50009091E8009E779093E80090E061157105DC
:103F600051F4911108C08091E80082FF34C080E0D4
:103F70000895BC01F2CF8091D5028823C1F185302C
:103F8000C1F18091E80083FD30C08091E80082FD9E
:103F9000EACF8091E80080FFE1CF8091F30020918B
:103FA000F200382F6115710519F02830310558F0ED
:103FB00091E02830310509F090E02091E8002E775B
:103FC0002093E800CBCF81918093F100615071097B
:103FD0002F5F3F4FE7CF8091D502882341F0853096
:103FE00041F08091E80083FFBECF81E0089582E038
:103FF000089583E00895FC018091DC029091DD0238
:1040000086179707A0F06115710529F48091E800E3
:104010008E778093E80090E06115710551F491115D
:1040200008C08091E80082FF35C080E00895BC019F
:10403000F2CF8091D5028823C9F18530C9F18091F2
:10404000E80083FD31C08091E80082FDEACF8091D5
:10405000E80080FFE1CF8091F3002091F200382F3B
:104060006115710519F02830310558F091E02830BC
:10407000310509F090E08091E8008E778093E800A8
:10408000CBCF84918093F1003196615071092F5FFD
:104090003F4FE6CF8091D502882341F0853041F033
:1040A0008091E80083FFBDCF81E0089582E008950C
:1040B00083E00895982F973028F08F708093E9005F
:1040C00081E008959093E900242F762F50E098170F
:1040D00031F07091EC002091ED005091F00021FD45
:1040E00002C09F5FE8CF3091EB003E7F3093EB0042
:1040F0003091ED003D7F3093ED003091EB00316069
:104100003093EB007093EC002093ED005093F0009F
:104110002091EE0027FDE5CF80E008958091D60242
:1041200087FF13C08091E80082FF06C08091E800FD
:104130008B778093E80004C08091D5028111F2CF83
:1041400008958091D5028823D9F38091E80080FFFB
:10415000F8CF8091E8008E77ECCF2091E400309189
:10416000E50095E6A9012091EC00822F817020FFE7
:1041700006C08091E80080FF06C080E0089520918D
:10418000E80022FD1AC08091D502882389F085308D
:1041900089F08091EB0085FD0FC02091E400309103
:1041A000E50042175307F9F29150E1F684E00895D3
:1041B00082E0089583E0089581E008950E944D21F2
:1041C0000E945521E0EEF0E0808181608083E8ED7F
:1041D000F0E080818F77808319BCA7EDB0E08C91EF
:1041E0008E7F8C9380818F7E80831092D40208957D
:1041F0000F931F93CF93DF930E944D210E9455216F
:10420000C8EDD0E088818F77888388818068888333
:1042100088818F7D888319BC1092D5021092D102BB
:104220001092D3021092D20200EE10E0F8018081C9
:104230008B7F808388818160888342E060E080E0BA
:104240000E945A20E1EEF0E080818E7F8083E2EED2
:10425000F0E0808181608083808188608083F801C4
:1042600080818E7F8083888180618883DF91CF9178
:104270001F910F910895E8EDF0E080818F7E80839B
:10428000E7EDF0E080818160808384E082BF81E09F
:104290008093D4020E94F8200895E8EDF0E0808138
:1042A0008E7F80831092E20008951092DA001092BF
:1042B000E10008951F920F920FB60F9211242F93D1
:1042C0003F934F935F936F937F938F939F93AF939E
:1042D000BF93EF93FF938091E10082FF0BC0809129
:1042E000E20082FF07C08091E1008B7F8093E100B4
:1042F0000E94B9238091DA0080FF19C08091D80014
:1043000080FF15C08091DA008E7F8093DA00809163
:10431000D90080FF96C080E189BD82E189BD09B4E2
:1043200000FEFDCF81E08093D5020E949F1D809109
:10433000E10080FF19C08091E20080FF15C08091EC
:10434000E2008E7F8093E2008091E20080618093A2
:10435000E2008091D80080628093D80019BC85E08B
:104360008093D5020E94B31D8091E10084FF2BC091
:104370008091E20084FF27C080E189BD82E189BD90
:1043800089B5982F917080FFFBCF8091D8008F7DE9
:104390008093D8008091E1008F7E8093E10080912E
:1043A000E2008F7E8093E2008091E2008160809342
:1043B000E2008091D102882309F449C084E080930F
:1043C000D5020E94BC1D8091E10083FF29C080912D
:1043D000E20083FF25C08091E100877F8093E100A8
:1043E00082E08093D5021092D1028091E1008E7F0D
:1043F0008093E1008091E2008E7F8093E2008091C3
:10440000E20080618093E20042E060E080E00E9490
:104410005A208091F00088608093F0000E94B01DC7
:10442000FF91EF91BF91AF919F918F917F916F918C
:104430005F914F913F912F910F900FBE0F901F9062
:10444000189519BC1092D5020E94AD1D70CF8091B5
:10445000E30087FD93E09093D502B3CF1F920F92B4
:104460000FB60F9211242F933F934F935F936F9347
:104470007F938F939F93AF93BF93CF93DF93EF93EC
:10448000FF93D091E900DF708091EC00C82FC170DC
:1044900080FDC0E81092E9008091F000877F809352
:1044A000F00078940E9472221092E9008091F0004E
:1044B00088608093F000CD2BCF70C093E900FF910E
:1044C000EF91DF91CF91BF91AF919F918F917F91AC
:1044D0006F915F914F913F912F910F900FBE0F9071
:1044E0001F901895AAE2B0E0E8E7F2E20C941024DD
:1044F00086ED92E02091F100FC012193CF01F2E0E2
:104500008E3D9F07B9F70E94DC1D8091E80083FF74
:104510001EC18091D6029091D7029A3008F017C13F
:10452000E92FF0E0EE54FB4D0C94FB23803899F01A
:10453000823809F00CC18091DA028F70873008F060
:1045400006C18093E9008091EB0085FB882780F904
:104550001092E90006C08091D2029091D30291118D
:1045600082609091E800977F9093E8008093F1003B
:104570001092F1008091E8008E77E5C0882309F45D
:10458000D3C0823009F0E3C08091D8028111D6C037
:104590008091DA028F702FEF280F263008F0D7C0F5
:1045A0008093E9002091EB0020FFC8C0933031F4E4
:1045B0008091EB0080628093EB00C0C09091EB0093
:1045C00090619093EB0021E030E001C0220F8A95CA
:1045D000EAF72093EA001092EA008091EB008860ED
:1045E000EACF8111B4C01091D8021F778091E30007
:1045F0008078812B8093E3008091E800877F80930F
:10460000E8000E948E208091E80080FFFCCF80911E
:10461000E30080688093E30082E0111183E08093DF
:10462000D50295C08058823008F091C08091D802A0
:104630009091D9028C3D23E09207A1F583E08A8313
:104640008AE289834FB7F894DE01139620E03EE0BA
:1046500051E2E32FF0E050935700E49120FF03C0B4
:10466000E295EF703F5FEF708E2F90E0EA30C0F080
:10467000C7968D939D932F5F243159F74FBF80913B
:10468000E800877F8093E8006AE270E0CE0101963F
:104690000E949D1F8091E8008B778093E80057C0AF
:1046A000C096E7CF6091DA027091DB02AE014F5FF6
:1046B0005F4F0E94DD1EBC01892B09F448C0909118
:1046C000E800977F9093E80089819A810E94FB1F00
:1046D000E1CF8038E1F58091E800877F8093E800A2
:1046E0008091D1028093F10045CF811130C090912B
:1046F000D802923060F58091E800877F8093E800CF
:104700009093D1020E948E208091D102882311F0D3
:1047100084E005C08091E30087FDFACF81E08093BB
:10472000D5020E94C71D13C08091D802813079F450
:1047300081E0933009F080E08093D3021092E90089
:104740008091E800877F8093E8000E948E2080910E
:10475000E80083FF0AC08091E800877F8093E8002B
:104760008091EB0080628093EB00AA96E3E00C94CA
:104770002C240895CF938091D5028823A1F0C09175
:10478000E900CF709091EC00892F817090FD80E856
:10479000C82B1092E9008091E80083FD0E947222EC
:1047A000CF70C093E900CF9108950E94DE2010924F
:1047B000D5020895E8EDF0E08081806180838AE190
:1047C0008A95F1F700C08091D9008170089597FB18
:1047D000072E16F4009407D077FD09D00E943824E4
:1047E00007FC05D03EF4909581959F4F08957095F4
:1047F00061957F4F0895EE0FFF1F0590F491E02D16
:1048000009942F923F924F925F926F927F928F9274
:104810009F92AF92BF92CF92DF92EF92FF920F934F
:104820001F93CF93DF93CDB7DEB7CA1BDB0B0FB659
:10483000F894DEBF0FBECDBF09942A883988488816
:104840005F846E847D848C849B84AA84B984C884AC
:10485000DF80EE80FD800C811B81AA81B981CE0FA3
:10486000D11D0FB6F894DEBF0FBECDBFED01089588
:10487000AA1BBB1B51E107C0AA1FBB1FA617B70786
:1048800010F0A61BB70B881F991F5A95A9F78095A2
:104890009095BC01CD010895FB01DC0104C08D9110
:1048A0000190801921F441505040C8F7881B990BA2
:1048B0000895FB01DC0102C001900D92415050406F
:1048C000D8F70895F999FECF92BD81BDF89A99273E
:1048D00080B50895A8E1B0E042E050E00C94962441
:1048E000262FF999FECF92BD81BDF89A019700B4A9
:1048F000021639F01FBA20BD0FB6F894FA9AF99A49
:104900000FBE08950396272F0E9471240E947024E1
:10491000252F0E947124242F0C9471240196272F97
:104920000E9471240C947024DC01CB01FC01F999E4
:10493000FECF06C0F2BDE1BDF89A319600B40D92EB
:1049400041505040B8F70895F894FFCF5F045F04DA
:10495000900490041D053905BF04BF044405D0052B
:10496000DF05DF059622BE22A723BE22A723F12260
:084970001223A723692375231C
:104978002202010000000100000000000000040104
:104988000000000405000000000000280850011E77
:104998000A1401051D2A1D091D9A1D951D081D01D2
:1049A800E200E900EA00B500B600B700CD008301D7
:1049B800CC008A01920194012102230224022502DB
:1049C800260227022A02B300B4006F007000818219
:1049D80083E200E900EA00B500B600B700CD008325
:1049E80001CC008A019201940121022302240225AC
:1049F80002260227022A02B300B4006F0070008169
:0E4A08008283F4F5F6F73133946697C65D02AB
:00000001FF
